:020000040800F2
:10000000008001200D2800085D2800085D280008F8
:100010005D2800085D2800085D2800080000000039
:10002000000000000000000000000000111800089F
:100030005D28000800000000A1180008B127000892
:100040005D2800085D2800085D2800085D2800087C
:100050005D2800085D2800085D2800085D2800086C
:100060005D2800085D2800085D2800085D2800085C
:100070005D2800085D2800085D2800085D2800084C
:100080005D2800085D2800085D28000800000000C9
:100090000000000000000000000000005D280008D3
:1000A0005D2800085D2800085D2800085D2800081C
:1000B0005D2800085D2800085D2800085D2800080C
:1000C0005D2800085D2800085D2800085D280008FC
:1000D0005D2800085D2800085D2800080000000079
:1000E0005D2800085D2800085D2800080000000069
:1000F0000000000000000000000000005D28000873
:10010000000000005D2800085D2800085D28000848
:1001100000000000000000000000000000000000DF
:100120005D2800085D2800085D2800085D2800089B
:100130005D28000800000000000000000000000032
:100140000000000000000000000000005D28000822
:100150005D2800085D2800085D2800085D2800086B
:100160005D2800085D280008000000000000000075
:10017000000000000000000000000000000000007F
:10018000000000005D2800080000000000000000E2
:040190005D280008DE
:1001A00010B5054C237833B9044B13B10448AFF3B1
:1001B00000800123237010BD10000020000000000B
:1001C000B828000808B5034B1BB103490348AFF337
:1001D000008008BD0000000014000020B8280008BE
:1001E00053B94AB9002908BF00281CBF4FF0FF319E
:1001F0004FF0FF3000F07AB9ADF1080C6DE904CE94
:1002000000F006F8DDF804E0DDE9022304B07047F1
:100210002DE9F0478C460D460446089E002B51D12F
:100220008A4217466DD9B2FA82FEBEF1000F0BD09A
:10023000CEF1200C01FA0EF520FA0CFC02FA0EF7B2
:100240004CEA050C00FA0EF44FEA174A250CBCFBE9
:10025000FAF81FFA87F90AFB18CC45EA0C4508FBA7
:1002600009F3AB420AD9ED1908F1FF3280F023817E
:10027000AB4240F22081A8F102083D44ED1AA4B23D
:10028000B5FBFAF00AFB105544EA054400FB09F9F6
:10029000A14509D9E41900F1FF3380F00A81A14595
:1002A00040F2078102383C44A4EB090440EA0840CC
:1002B0000021002E61D024FA0EF400233460736014
:1002C000BDE8F0878B4207D9002E54D0002186E884
:1002D00021000846BDE8F087B3FA83F1002940F019
:1002E0008E80AB4202D3824200F2FA80841A65EB20
:1002F00003050120AC46002E3FD086E81010BDE873
:10030000F08712B90127B7FBF2F7B7FA87FEBEF103
:10031000000F34D1EB1B3A0C1FFA87FC0121B3FB11
:10032000F2F8250C02FB183345EA03450CFB08F3F1
:10033000AB4207D9ED1908F1FF3002D2AB4200F20F
:10034000D1808046ED1AA3B2B5FBF2F002FB105546
:1003500043EA05440CFB00FCA44507D9E41900F16D
:10036000FF3302D2A44500F2B8801846A4EB0C0477
:1003700040EA08409DE731463046BDE8F087CEF1BF
:10038000200405FA0EF307FA0EF720FA04F83A0CE7
:1003900025FA04F448EA0308B4FBF2F14FEA1845E1
:1003A00002FB11441FFA87FC45EA044501FB0CF3EC
:1003B000AB4200FA0EF409D9ED1901F1FF3080F0DB
:1003C0008A80AB4240F2878002393D44EB1A1FFA23
:1003D00088F5B3FBF2F002FB103345EA034500FB5E
:1003E0000CF3AB4207D9ED1900F1FF386FD2AB42E5
:1003F0006DD902383D44EB1A40EA01418FE7C1F163
:10040000200722FA07F88B4005FA01F448EA0303B3
:1004100020FA07FE4FEA134CFD404EEA040EB5FBEE
:10042000FCF94FEA1E440CFB19551FFA83F844EA05
:10043000054509FB08F4AC4202FA01F200FA01FAA0
:1004400008D9ED1809F1FF3043D2AC4241D9A9F1E6
:1004500002091D442D1B1FFA8EFEB5FBFCF00CFBA0
:1004600010554EEA054400FB08F8A04507D9E418EA
:1004700000F1FF3529D2A04527D902381C4440EAB3
:100480000940A4EB0804A0FB02894C45C6464D4632
:1004900015D312D056B1BAEB0E0364EB050404FA7F
:1004A00007F7CB401F43CC40376074600021BDE8A4
:1004B000F0871846F8E69046E0E6C245EAD2B8EB87
:1004C000020E69EB03050138E4E72846D7E740460A
:1004D00091E78146BEE7014678E702383C4445E7AC
:1004E000084608E7A8F102083D442BE7704700BF23
:1004F00038B50E4A0E4B054618784FF47A73B3FBA5
:10050000F0F31068B0FBF3F000F076FA044658B947
:100510000F2D09D8024629464FF0FF3000F038FA77
:10052000044B20461D6038BD012038BD0C00002062
:10053000000000200400002008B50B4B1A6842F4AC
:1005400000721A601A6842F480621A601A6842F4F3
:1005500080721A60032000F009FA0F20FFF7C8FF2D
:1005600002F05AF8002008BD003C0240034A044B48
:1005700011681B780B441360704700BF783D002062
:1005800000000020014B1868704700BF783D002034
:1005900010B50446002800F09980036C23B9436429
:1005A00080F83C3002F05AF8236CDB0600F18C80B6
:1005B000236C23F4885323F0020343F002032364E3
:1005C000434B5A6822F440325A605A6861680A43C1
:1005D0005A60236821695A6822F480725A605A6806
:1005E00042EA01225A605A68A16822F040725A60B9
:1005F0005A680A435A609A68E16822F400629A6075
:100600009A680A439A603349A26A8A4250D099682C
:1006100021F07061996099680A439A609A68E16A6A
:1006200022F040529A609A680A439A609A68A169D7
:1006300022F002029A609A6842EA41029A60226AB3
:10064000002A3DD05A68616A42F400625A605A68D2
:1006500022F460425A605A68013942EA41325A60D3
:10066000DA6AE16922F47002DA62DA6A013942EA8E
:100670000152DA629A68216B22F400729A609A68D9
:1006800042EA41229A609A68616922F480629A6023
:100690009A68002042EA81229A606064236C23F009
:1006A000030343F001032364002384F83C3010BDAE
:1006B0009A6822F070629A609A6822F04052B4E719
:1006C0005A6822F40062CAE70120EDE7012010BD5C
:1006D000002301400100000F82B00023019390F835
:1006E0003C30012B4ED0012380F83C3003689A68DF
:1006F000D10705D59A68D20714D4002002B07047FC
:100700009A68214942F001029A60204A1268B2FBBD
:10071000F1F202EB42020192019A002AEAD0019A18
:10072000013AF8E7026C22F4E06222F0010242F49E
:10073000807202645A68510541BF026C22F4405233
:1007400042F480520264026C12F480521CBF426C6C
:1007500022F006024264002280F83C206FF0220260
:100760001A600B4A5268D20608D1986810F04050BF
:10077000C3D19A6842F080429A60BFE7054A93422B
:10078000BBD1F2E70220B9E740420F000C00002085
:10079000002301400020014003689A6870B55605A7
:1007A00004460D460BD59B68D80508D5236C43F04D
:1007B00020032364002384F83C30012070BDFFF740
:1007C000E1FE064623681A6892070CD56FF0120204
:1007D0001A60226C42F4007222649A6812F0405F40
:1007E00013D0002070BD691CEDD045B9236C43F0D7
:1007F00004032364002384F83C30032070BDFFF71A
:10080000C1FE801B8542DDD2F0E7A269002AE8D153
:10081000DA6A12F4700F02D09B685B05E1D4236C96
:1008200023F480732364206C10F48050D9D1236C9E
:1008300043F00103236470BD0368D86C7047000067
:10084000F7B50023019390F83C30012B00F0838032
:100850000D6804688A680123092D80F83C30AEB227
:100860002AD906EB4603E7681E3B4FF0070E0EFA47
:1008700003FE27EA0E07E760E76802FA03F33B434B
:10088000E3604A68062A4FEA820325D81344676B5F
:10089000591F1F238B4027EA03036363626B06FA29
:1008A00001F1114361632D4B9C4234D0002380F849
:1008B0003C30184603B0F0BD276905EB45034FF007
:1008C000070E0EFA03FE27EA0E072761276902FAD0
:1008D00003F33B432361D4E70C2A0ED81344216B66
:1008E000A3F123021F23934021EA03032363236B15
:1008F00006FA02F21A432263D5E71344E16A413B48
:100900001F229A4021EA0202E262E26A06FA03F139
:100910001143E162C7E7122D04D1114A536843F431
:1009200080035360A5F11003012BBFD80C4A536814
:10093000102D43F400035360B8D10A4B0A4A1B68D8
:10094000B3FBF2F20A2353430193019B002BADD07A
:10095000019B013BF8E70220ACE700BF002001400B
:10096000002301400C00002040420F00074AD368DA
:1009700023F4E0631B041B0C43F0BF63000243F449
:10098000003300F4E0600343D360704700ED00E003
:10099000174B30B5DC68C4F30224C4F10703251DEE
:1009A000042B28BF0423062D4FF0010505FA03F39D
:1009B00003F1FF338CBF033C00241940A14005FA2A
:1009C00004F4013C2240002842EA01024FEA0212EC
:1009D000AFBF00F1604000F00F00064BD2B2A5BFE0
:1009E00000F56140D2B21A5480F8002330BD00BF38
:1009F00000ED00E014ED00E00138B0F1807F0AD294
:100A0000064B074A5860F02182F823100020072285
:100A100098601A6070470120704700BF10E000E046
:100A200000ED00E02DE9F04F85B00B68DFF89C8108
:100A3000644A01934FF001090023019C09FA03F76E
:100A400007EA0406B74240F0AD804C6824F0100A73
:100A5000BAF1020F16D14FEAD30C00EB8C0C03F065
:100A6000070BDCF820504FEA8B0B4FF00F0E0EFAFD
:100A70000BFE25EA0E0E0D6905FA0BF545EA0E058B
:100A8000CCF820504FEA430C0325D0F800B005FA0B
:100A90000CF5ED4304F0030E0BEA050B0EFA0CFE09
:100AA0000AF1FF3A4EEA0B0EBAF1010F0095C0F8B9
:100AB00000E015D8D0F808E005EA0E0ECD6805FA7A
:100AC0000CFA4AEA0E0EC0F808E0D0F804E02EEA6C
:100AD0000707C4F3001E0EFA03FE4EEA070747603D
:100AE000C768009D3D408F6807FA0CF73D43C5601D
:100AF000E50057D54FF0000BCDF80CB0D8F8447096
:100B0000314D47F48047C8F84470D8F8447007F472
:100B100080470397039F23F0030707F1804707F5FA
:100B20009C3703F0030CD7F808A04FEA8C0C4FF069
:100B30000F0E0EFA0CFEA8422AEA0E0E39D005F569
:100B40008065A84237D005F58065A84235D005F507
:100B50008065A84233D005F58065A84214BF0725FB
:100B6000042505FA0CF545EA0E05BD601568F74346
:100B700014F4803F0CBF3D4035431560556814F4B4
:100B8000003F0CBF3D4035435560956814F4801F0D
:100B90000CBF3D4035439560D568A40254BF3D402D
:100BA0003543D5600133102B7FF447AF05B0BDE866
:100BB000F08F5D46D5E70125D3E70225D1E7032570
:100BC000CFE700BF003C0140000002400038024077
:100BD0000369194214BF0120002070470AB18161E6
:100BE00070470904FBE700002DE9F341044618B9FA
:100BF000012002B0BDE8F0810368DD0710D423684E
:100C0000980758D423681A0700F19A8023685B0775
:100C100000F1B880A269002A40F019810020E8E7BD
:100C2000A64B9A6802F00C02042A07D09A6802F0D8
:100C30000C02082A0AD15B68590207D59F4B1B6832
:100C40009A03DCD56368002BD9D1D1E763689B4D4B
:100C5000B3F5803F11D12B6843F480332B60FFF74D
:100C600091FC964D06462B689B03C8D4FFF78AFC7F
:100C7000801B6428F7D90320BBE7B3F5A02F04D16C
:100C80002B6843F480232B60E5E72A6822F4803246
:100C90002A602A6822F480222A60002BDFD1FFF725
:100CA00071FC06462B689F03A9D5FFF76BFC801BE0
:100CB0006428F7D9DFE7814B9A6812F00C0F07D050
:100CC0009A6802F00C02082A11D15B685E020ED409
:100CD0007A4B1A68950702D5E268012A88D11A680A
:100CE000216922F0F80242EAC1021A608AE7E2684A
:100CF000734BB2B101221A60FFF744FC6F4D0646F8
:100D00002B68980707D52B68226923F0F80343EA7C
:100D1000C2032B6076E7FFF735FC801B0228EFD972
:100D2000A9E71A60FFF72EFC644D06462B68990769
:100D30007FF568AFFFF726FC801B0228F6D99AE7FB
:100D40006269604B7AB101221A60FFF71BFC5B4DB0
:100D500006466B6F9F073FF559AFFFF713FC801BEB
:100D60000228F6D987E71A60FFF70CFC534D0646B8
:100D70006B6F98077FF54AAFFFF704FC801B0228D2
:100D8000F6D978E74D4B1A6C12F0805228D10192B7
:100D90001A6C42F080521A641B6C03F0805301936A
:100DA000019B0126484D2B68D9051BD5A368434DEF
:100DB000012B27D12B6F43F001032B67FFF7E2FBD9
:100DC0003E4D074641F288382B6F9B0739D5002EE0
:100DD0003FF420AF394A136C23F08053136419E7B2
:100DE0000026DFE72B6843F480732B60FFF7CAFB14
:100DF00007462B68DA05D9D4FFF7C4FBC01B0228CD
:100E0000F7D938E7052B04D12B6F43F004032B6788
:100E1000D0E72A6F22F001022A672A6F22F004022B
:100E20002A67002BCAD1FFF7ADFB41F2883807468D
:100E30002B6F9807CBD5FFF7A5FBC01B4045F7D913
:100E400019E7FFF79FFBC01B4045BDD913E71B4DBA
:100E5000AB6803F00C03082B3FF4CAAE1B4E002313
:100E6000022A336034D1FFF78DFB07462B689901C6
:100E70001ED4226AE3691343626A43EA8213E26A78
:100E800043EA0263A26A0D4C5208013A43EA024364
:100E90006B6001233360FFF775FB054623689A01F9
:100EA0003FF5BCAEFFF76EFB401B0228F6D9E2E629
:100EB000FFF768FBC01B0228D8D9DCE600380240E7
:100EC00000004742800E47420070004060004742E9
:100ED000FFF758FB04462B689B017FF59FAEFFF799
:100EE00051FB001B0228F6D9C5E600BF134908B51F
:100EF0008B6803F00C03042B03D0082B03D010489D
:100F000008BD104808BD4A684B68496813F480035F
:100F100014BF0C480A48C1F3881118BF002302F01F
:100F20003F02A1FB0001FFF75BF9044B5B68C3F3D1
:100F3000014301335B00B0FBF3F008BD0038024011
:100F40000024F40000127A002DE9F0410D46044619
:100F500010B90120BDE8F081444B1A6802F00F027D
:100F60008A4228D321688F072DD4C80740D43F4B2D
:100F70001A6802F00F02954266D3226851076CD4BA
:100F8000130707D53A4A2169936823F4604343EA7B
:100F9000C1039360FFF7AAFF354B364A9B68C3F342
:100FA0000313D35CD840344B18600F20FFF7A0FA2E
:100FB0000020BDE8F081CAB21A701B6803F00F036D
:100FC0009942C6D1CEE72A4B11F0040F1EBF9A6892
:100FD00042F4E0529A600E0742BF9A6842F46042BF
:100FE0009A609A68A06822F0F00202439A60BCE717
:100FF00062681F4B012A1DD11B6813F4003FA8D063
:101000001B4EB36823F003031343B360FFF7BAFA30
:1010100041F288380746B368626803F00C03B3EB0B
:10102000820FA4D0FFF7AEFAC01B4045F3D90320CE
:10103000BDE8F081911E01291B6802D813F0007FE2
:10104000DDE713F0020FDAE7EAB21A701B6803F06B
:101050000F039D427FF47DAF8FE70549E0688B6801
:1010600023F4E05303438B608AE700BF003C024057
:1010700000380240142900080C000020044B054AE7
:101080009B68C3F38223D35C034A1068D84070473F
:1010900000380240242900080C000020044B054AB7
:1010A0009B68C3F34233D35C034A1068D84070474F
:1010B00000380240242900080C000020036A23F0B5
:1010C00001030362036A70B5446882690D6822F007
:1010D00073022A438D6823F002032B430A4DA84272
:1010E0000BD1CD688E6923F008032B434D6924F49E
:1010F0004074354323F004032C43446082614A6802
:101100004263036270BD00BF00000140036A23F424
:1011100080730362036A70B54468C2690D6822F087
:1011200073022A438D6823F4007343EA05230B4DB1
:10113000A8420DD1CD688E6923F4006343EA0523EC
:101140004D6924F44054354323F4806344EA051484
:101150004460C2614A68C263036270BD000001401E
:10116000036A23F480530362036A30B54468C2699A
:101170000D6822F4E64242EA05228D6823F400530A
:1011800043EA0533064DA84202BF4D6924F480446A
:1011900044EA85144460C2614A680264036230BD57
:1011A0000000014070470000224A036890420ED0C0
:1011B000B0F1804F0BD0A2F57C42904207D002F5EF
:1011C0008062904203D002F58062904219D14A6851
:1011D00023F070031343174A904204D1CA6823F4E2
:1011E0004073134318E0B0F1804FF7D0124A904299
:1011F000F4D002F580629042F0D002F58062904215
:10120000ECD00E4A9042E9D002F580629042E5D0DF
:1012100002F580629042E1D003608B68C3620B6884
:101220008362044B984204BF0B690363012343614B
:10123000704700BF00000140000400400040014032
:1012400010B50446A0B190F8393003F0FF021BB985
:1012500080F8382001F034FA022384F8393020680D
:10126000211DFFF7A1FF012384F83930002010BDB4
:10127000012010BD10B50446A0B190F8393003F03C
:10128000FF021BB980F83820FFF78CFF022384F897
:1012900039302068211DFFF787FF012384F839309A
:1012A000002010BD012010BD036A23F0100303626B
:1012B000036A70B5446882690D6822F4E64242EA26
:1012C00005228D6823F0200343EA05130B4DA84245
:1012D0000DD1CD688E6923F0800343EA05134D6973
:1012E00024F44064354323F0400344EA8504446019
:1012F00082614A688263036270BD00BF00000140E2
:1013000038B590F83830012B04464FF0020025D054
:10131000012384F8383084F839000C2A18D8DFE823
:1013200002F0071717171E1717172F171717400068
:101330002068FFF7C3FE236809699A6942F0080232
:101340009A619A6922F004029A619A690A439A6141
:101350000123002084F8393084F8380038BD206833
:10136000FFF7A2FF236809699A6942F400629A6153
:101370009A6922F480629A619A6942EA0122E6E758
:101380002068FFF7C3FE23680969DA6942F00802A2
:10139000DA61DA6922F00402DA61DA690A43DA61B1
:1013A000D6E72068FFF7DCFE23680969DA6942F4B2
:1013B0000062DA61DA6922F48062DA61DA6942EAAB
:1013C0000122ECE7036A10B501248C4023EA0403F0
:1013D0000362036A8A401A43026210BD10B50446D4
:1013E00001220068FFF7EEFF2368064A934202BF1E
:1013F0005A6C42F400425A641A6842F001021A60C0
:10140000002010BD000001402DE9F0470668C268C9
:101410003369C16923F4405313433361044683683D
:101420000069F2680343606922F41642034322F024
:101430000C020B431343F3607369A26923F44073F6
:101440001343B1F5004F73617A4B7CD19E4203D0B8
:1014500003F580639E4244D1FFF720FE192505FB6A
:1014600000F360684FF064094000B3FBF0F3B3FB96
:10147000F9F34FEA0318FFF711FE636868435B0056
:10148000B0FBF3F7FFF70AFE636868435B00B0FB4D
:10149000F3F3B3FBF9F309FB1373DB003233B3FB54
:1014A000F9F35B0003F4F877FFF7F8FD626868432F
:1014B0005200B0FBF2FAFFF7F1FD636868435B008E
:1014C000B0FBF3F3B3FBF9F309FB13A3DB003233F7
:1014D000B3FBF9F303F0070343443B44B360BDE8B7
:1014E000F087FFF7CBFD192505FB00F360684FF08F
:1014F00064094000B3FBF0F3B3FBF9F34FEA0318C0
:10150000FFF7BCFD636868435B00B0FBF3F7FFF7D0
:10151000B5FD636868435B00B0FBF3F3B3FBF9F31D
:1015200009FB1373DB003233B3FBF9F35B0003F405
:10153000F877FFF7A3FD626868435200B0FBF2FA48
:10154000FFF79CFDB9E79E4202D03B4B9E4240D143
:10155000FFF7A4FD676819254FF0640905FB00F348
:10156000BF00B3FBF7F3B3FBF9F31F01FFF796FDE1
:10157000636868439B00B0FBF3F8FFF78FFD636877
:1015800068439B00B0FBF3F3B3FBF9F309FB138350
:101590001B013233B3FBF9F303F0F008FFF77EFDD4
:1015A000626868439200B0FBF2FAFFF777FD636868
:1015B00068439B00B0FBF3F3B3FBF9F309FB13A300
:1015C0001B013233B3FBF9F303F00F0343EA0803C3
:1015D00083E7FFF753FD676819254FF0640905FBA2
:1015E00000F3BF00B3FBF7F3B3FBF9F31F01FFF701
:1015F00045FD636868439B00B0FBF3F8FFF73EFDD1
:10160000636868439B00B0FBF3F3B3FBF9F309FB9A
:1016100013831B013233B3FBF9F303F0F008FFF738
:101620002DFD626868439200B0FBF2FAFFF726FDD9
:10163000BDE700BF001001400014014010B5044692
:1016400040B390F8393003F0FF021BB980F838201E
:1016500001F07AF82268242384F83930D36823F41F
:101660000053D3602046FFF7CFFE23681A6922F4A7
:1016700090421A615A6922F02A025A61DA6842F4E9
:101680000052DA6000202023E06384F8393084F8C7
:101690003A3010BD012010BD08B500F0E5FB002078
:1016A00008BD30B5B0F90840028A0B4690E8220028
:1016B00085B0842C14BF0334002403A80190009447
:1016C000284600F001FB01280CBF0398002005B05C
:1016D00030BD08B5002808BF012000F013FD002030
:1016E00008BD08B500F0A6FD012803D0BDE80840FC
:1016F00000F008B908BD00F1080343604FF0FF3265
:10170000C3600361002382600360704700230361AC
:10171000704743684B609A688A609A685160996024
:10172000036808610133036070470A68531C30B5D1
:101730000AD103695A684A6091608B6059600368F6
:1017400008610133036030BD00F108035C6825685F
:10175000AA42EFD32346F9E74168826803698A60A9
:10176000826851605968884208BF5A60002202614D
:1017700018680138186070470A4B1B68013308D09D
:101780004FF0500383F31188BFF36F8FBFF34F8F78
:10179000FEE74FF0500383F31188BFF36F8FBFF361
:1017A0004F8FFEE70800002006480068006880F3BD
:1017B000088862B661B6BFF34F8FBFF36F8F00DF4B
:1017C00000BF000008ED00E0DFF80C00016841F404
:1017D000700101607047000088ED00E04FF08073F9
:1017E00040F8043C074B40F80C3C21F001016FF03D
:1017F000020340F8081C40F8202C40F8243C4438F0
:10180000704700BF791700080000000000000000CA
:10181000074B19680868B0E8F04F80F30988BFF3F8
:101820006F8F4FF0000080F311887047AFF3008096
:101830004C3C00204FF0500383F31188BFF36F8FAF
:10184000BFF34F8F0A4A13680133012B13600DD188
:10185000084B1B6813F0FF0F08D04FF0500383F3C1
:101860001188BFF36F8FBFF34F8FFEE7704700BF44
:101870000800002004ED00E0084A136843B94FF067
:10188000500383F31188BFF36F8FBFF34F8FFEE7D1
:10189000013B13600BB983F31188704708000020E7
:1018A000EFF30980BFF36F8F154B1A681EF0100F0E
:1018B00008BF20ED108A20E9F04F10604DF8043D7C
:1018C0004FF0500080F31188BFF34F8FBFF36F8F3D
:1018D00000F076FC4FF0000080F3118808BC196816
:1018E0000868B0E8F04F1EF0100F08BFB0EC108A87
:1018F00080F30988BFF36F8F704700BFAFF300809C
:101900004C3C002008B54FF0500383F31188BFF31F
:101910006F8FBFF34F8F00F0EBFA18B1034B4FF00E
:1019200080521A60002383F3118808BD04ED00E0A3
:10193000064B4FF47A721B68B3FBF2F3044A013B87
:101940001360044B07221A60704700BF0C00002090
:1019500014E000E010E000E0314B324A13B51968A2
:10196000914208D14FF0500383F31188BFF36F8F7A
:10197000BFF34F8FFEE71A682B4B9A4208D14FF006
:10198000500383F31188BFF36F8FBFF34F8FFEE7D0
:10199000264B1A78D2B20192FF221A701B78244A81
:1019A000DBB28DF803309DF8033003F05003137061
:1019B000204B07221A6000219DF80300000602F167
:1019C000FF3423D401B11A601A68120202F4E062F3
:1019D0001A60019B154ADBB21370174B1A6842F468
:1019E00070021A601A6842F070421A60FFF7A0FF96
:1019F000124B00221A60FFF7E7FE114A136843F00A
:101A000040431360FFF7D0FEFFF7B6FE9DF80320BA
:101A10005200D2B28DF8032001212246CCE700BF4C
:101A200000ED00E071C20F4170C20F4100E400E020
:101A30002C0000203000002020ED00E008000020F5
:101A400034EF00E010B50F4B1A68824218D35C687F
:101A50001919884201BF416818460919596044683C
:101A600001198A4207D1084909688A421FBF516893
:101A70001268091941609842026018BF186010BDD1
:101A80001346E1E7443C0020340000202DE9F041FA
:101A9000044600F025FA3E493E4D0B680BBB3E4A1A
:101AA00056071FBFD01D20F0070002F570531B1A08
:101AB00014BF02464FF470531344083B23F007034E
:101AC000364E0B6000207060326058601860981AC3
:101AD0001360334B50601860324B18604FF0004376
:101AE0002B602F68274216D1002C41D004F1080347
:101AF00058071CBF23F00703083363B1294A16684F
:101B0000B342904607D8254A15686868834204D8CE
:101B100009688D4207D100242AE02C68002CF7D0F8
:101B20002A462546F1E7296814681160C21A102A6E
:101B30000FD9E818410708D04FF0500383F31188FC
:101B4000BFF36F8FBFF34F8FFEE742606B60FFF70D
:101B500079FF13496B680868F61A1F4386424FF0F5
:101B60000003C8F8006038BF0E6008346F602B6057
:101B700000F050FA630708D04FF0500383F3118848
:101B8000BFF36F8FBFF34F8FFEE72046BDE8F081B4
:101B900034000020383C002038000020443C002065
:101BA000403C00203C3C002010B5044670B3184A6D
:101BB00050F8043C1268134208D14FF0500383F3ED
:101BC0001188BFF36F8FBFF34F8FFEE750F8081CEB
:101BD00041B14FF0500383F31188BFF36F8FBFF310
:101BE0004F8FFEE723EA020340F8043C00F078F947
:101BF000084A54F8043C1168A4F108000B4413602F
:101C0000FFF720FFBDE8104000F004BA10BD00BF90
:101C1000383C00203C3C0020064A13681968064BFB
:101C200019B94FF0FF321A6070471268D268D26853
:101C30005268F8E7503C0020283D0020F8B51B4BC7
:101C40001B4E1D680446306804300F46FFF784FDC4
:101C5000334640B93168174EC96A3268012088405E
:101C600022EA00023260621C07D137B119681248BB
:101C70000431BDE8F840FFF74CBD2C441A68A5427A
:101C8000546007D90D4A10681968BDE8F84004315E
:101C9000FFF74BBD0A4A106819680431FFF745FD8C
:101CA000084B1A68944238BF1C60F8BD703D002094
:101CB0004C3C0020F83C0020483D0020543C0020D3
:101CC000503C0020283D00202DE9F84F4FEA820AC1
:101CD000804650460F4699460B9EFFF7D7FE0546B5
:101CE000002800F096805420FFF7D0FE044600281C
:101CF00000F08C80AAF1040A056355447B1E25F090
:101D0000070A00F134020F37597802F8011B13F863
:101D1000011F09B1BB42F7D10A9D062D28BF062538
:101D20004FF0000B271DE5626564384684F843B028
:101D3000C4F848B0FFF7EAFCC5F1070504F1180044
:101D4000FFF7E4FCC4F84CB02461A561646284F838
:101D500050B04A4641465046FFF740FD206006B16C
:101D60003460FFF767FD324B324E1A68DFF8F080BF
:101D700001321A603568002D4ED134601B68012B8A
:101D80001DD108EB05001435FFF7B5FC8C2DF8D1FB
:101D9000DFF8D090284D4846FFF7ADFC2846FFF706
:101DA000AAFC2648FFF7A7FC2548FFF7A4FC254816
:101DB000FFF7A1FC244BC3F80090244B1D60244A7C
:101DC00024491368086801331360E26A012505FAA3
:101DD00002F3034314200B6000FB02803946FFF737
:101DE00098FCFFF749FD1C4B1B6863B13368DA6A46
:101DF000E36A9A4207D2194B4FF080521A60BFF340
:101E00004F8FBFF36F8F2846BDE8F88F2846FFF746
:101E1000CBFE4FF0FF35F6E70F4B1B68002BCED102
:101E20003368DA6AE36A9A4298BF3460C7E700BF52
:101E3000E43C00204C3C0020103D0020303D0020C0
:101E40005C3D0020483D0020503C0020543C0020D8
:101E5000F43C0020F83C0020443D002004ED00E06C
:101E6000583C0020FC3C002013B5174B0193002484
:101E700000942346802215491548FFF725FF0128C5
:101E800014D14FF0500383F31188BFF36F8FBFF36A
:101E90004F8F104B4FF0FF321A600F4B18600F4BF3
:101EA0001C6002B0BDE81040FFF756BD013008D1FC
:101EB0004FF0500383F31188BFF36F8FBFF34F8F41
:101EC000FEE702B010BD00BF243D0020F828000846
:101ED0004D210008283D0020443D0020703D002099
:101EE000024A136801331360704700BFF03C0020C2
:101EF0002DE9F84F3C4B1B68002B53D13B4B1C6822
:101F000001341C60BCB93A4B1A68126842B14FF0F8
:101F1000500383F31188BFF36F8FBFF34F8FFEE73A
:101F2000344A1968106818601160334A1368013325
:101F30001360FFF771FE314D314F2B689C424FF01B
:101F4000000B3ED3DFF8A880DFF8C490D8F800205B
:101F5000126872BB4FF0FF322A6032E006F1040AC9
:101F60005046FFF7F9FBB16A19B106F11800FFF707
:101F7000F3FBF06AD9F80030012202FA00F11943AC
:101F8000204BC9F800104FF0140E51460EFB0030E4
:101F9000FFF7BFFB3868F16AC26A914228BF4FF071
:101FA000010BD3E7184A1368013313604FF0000B9D
:101FB00011E0D8F80020D268D66871688C42CDD282
:101FC00029603A680F4BD16A14224A439A58022A70
:101FD00028BF4FF0010B0D4A1268002A18BF4FF0BE
:101FE000010B5846BDE8F88FF03C0020703D002002
:101FF000503C0020543C00202C3D0020283D002077
:102000004C3C0020583C0020EC3C0020743D00205B
:10201000F83C00202DE9F843314C236843B94FF0D8
:10202000500383F31188BFF36F8FBFF34F8FFEE729
:10203000FFF700FC2368013B236024682CB10024D7
:10204000FFF71AFC2046BDE8F883264B1B68002BDF
:10205000F5D0DFF8A890244FDFF8A480D9F800303D
:10206000E3B90CB1FFF7D8FD204D2C6844B1204EE8
:102070000127FFF73DFF00B13760013CF9D12C602B
:102080001B4B1B68002BDAD01A4B4FF080521A60A2
:10209000BFF34F8FBFF36F8F0124D1E7D9F80C3016
:1020A000DC68261D04F11800FFF756FB3046FFF7E9
:1020B00053FBE26A3968012505FA02F314200B4349
:1020C00000FB028031463B60FFF723FB0A4BE26ACC
:1020D0001B68DB6A9A4224BF054B1D60BEE700BF48
:1020E000F03C0020E43C0020F83C0020EC3C0020C8
:1020F000743D002004ED00E04C3C0020303D002009
:10210000583C002008B540B90E4B4FF080521A6081
:10211000BFF34F8FBFF36F8F08BD0B4B196841B1F1
:102120004FF0500383F31188BFF36F8FBFF34F8FCE
:10213000FEE7FFF7D5FEFFF781FDFFF76BFF0028F5
:10214000E2D008BD04ED00E0F03C002008B5174ED9
:10215000174C236863B9174B1B68012BF8D9164B32
:102160004FF080521A60BFF34F8FBFF36F8FEFE7CE
:10217000FFF7B6FE3568FFF74DFF002DE9D0FFF7FA
:1021800059FBF368DD68281DFFF7E6FA0B4A136870
:10219000013B13602368013B2360FFF76DFB286B55
:1021A000FFF702FD2846FFF7FFFCD2E75C3D002069
:1021B000E83C0020583C002004ED00E0E43C002016
:1021C000174B1A68174B10B512B101221A6010BDD7
:1021D0001A60154B1B68B3FA83F3DBB2C3F11F031C
:1021E000142212495A4388188C5844B94FF05003AE
:1021F00083F31188BFF36F8FBFF34F8FFEE74468FF
:102200000832646844600A44944204BF62684260D1
:10221000142202FB03135B68DA68054BD6E700BFA4
:10222000F03C0020743D0020F83C0020583C002089
:102230004C3C0020054B1B6833B1054B1B68002B41
:102240000CBF02200020704701207047443D002051
:10225000F03C00202DE9F04100212048DFF8848087
:102260001F4FFFF7BBF8002540F2E9362C4601343A
:10227000B4F5FA6F08BF0024322C01D0B44204D167
:10228000002280214046FEF7A9FC4FF40041384669
:10229000FEF79EFCEB070FD401280DD1012280210F
:1022A0004046FEF79BFC04F119024FF4FA63012546
:1022B00092FBF3F603FB16264FF400413846FEF777
:1022C00087FC002814BF002005F0010000284FF013
:1022D000010018BF0025FFF7FCF9C8E7C83D002042
:1022E00000000240000402400A4B1968CB6AD1ED9D
:1022F0000D7AF8EE677A5B0837EE800AC82BBCEEE1
:10230000C00A28BFC82310EE102A934228BF1346E4
:102310004B637047C83D002010B50F4C2DED028B6C
:10232000B6EE008A0C48FEF7D7F901210A48FEF7FD
:1023300033FA60B92046FEF77FFAC0F5FA6007EE7F
:10234000900AB8EEE70A20EE080AFFF7CDFF6420F6
:10235000FFF7BFF9E6E700BF803D002010B594B05D
:102360003022002108A800F09FFA1422002103A8BF
:1023700000F09AFA00221E4B0192196C41F0805134
:1023800019641B6C1B4903F080530193019B02925B
:102390000B6823F4404343F400430B600B680F9237
:1023A00003F440430293029B01230B9310230C93ED
:1023B00010934FF4A873119304230224129308A8D6
:1023C000072308940E941393FEF70EFC00B1FEE76A
:1023D0000F23039305904FF480530790214603A8E1
:1023E00004940693FEF7B0FD00B1FEE714B010BDF3
:1023F000003802400070004000B591B0FEF79CF834
:10240000FFF7ACFF1422002109A800F04DFA0024C8
:10241000724B00941A6B724842F004021A631A6BF2
:1024200002F004020092009A01941A6B42F08002BA
:102430001A631A6B02F080020192019A02941A6BDD
:1024400042F001021A631A6B02F001020292029A30
:1024500003941A6B42F002021A631B6B03F002032F
:10246000039322462021039BFEF7B8FB22464FF43C
:1024700000715C48FEF7B2FB224680215A48FEF705
:10248000ADFB4FF40053099309A9584B55480A93E3
:1024900001250B94FEF7C6FA202309A95048099399
:1024A0000A950B940C94FEF7BDFA4FF4007309A93A
:1024B0004C4809930A950B940C94FEF7B3FA4FF429
:1024C000004309A9464809930A940B94FEF7AAFA17
:1024D000802309A9444809930A950B940C94FEF7AC
:1024E000A1FA4348434B84604FF4E13680E848004A
:1024F0000C23C460046143618461C461FFF79EF8EA
:10250000064600B1FEE70146102209A800F0CCF90A
:10251000394C3A49A6604FF4403384E80A0020461B
:10252000374B2561A5612662E662A362E660E5613C
:1025300026636561FEF72CF800B1FEE709900B9069
:1025400009A920460A95FEF77BF9054600B1FEE78A
:102550001C22014609A800F0A7F92A4C2A4AA560C6
:10256000542384E80C0020464FF4FA73E36025619D
:10257000FEF766FE00B1FEE72046FEF77BFE024650
:1025800000B1FEE7602309930B9064230D9009A925
:1025900020460A93FEF7B4FE064600B1FEE7204649
:1025A0001A4C00F0A5F80FCC04AD0FC554F8043B4D
:1025B0002B60314604A8FFF774F8154B18600FCC58
:1025C00009AD0FC523682B60314609A8FFF769F8EC
:1025D000104B1860FFF760F8FEE700BF00380240BC
:1025E00000000240000802400004024000002110E8
:1025F000043E002000440040803D002000200140B7
:102600000100000FC83D002000480140D02800080C
:102610007C3D0020543E002007B50F4B0022009265
:10262000596C41F480415964596C01F48041009126
:1026300000990192196C41F0805119641B6C03F0F0
:10264000805301930F216FF00100019BFEF7A0F969
:1026500003B05DF804FB00BF0038024010B504462B
:1026600088B01422002103A800F01EF92268124B42
:102670009A421ED103F58C33002101915A6C0F4808
:1026800042F480725A645A6C02F480720192019A88
:1026900002911A6B42F001021A631B6B03F00103F3
:1026A0000293029B0123039303A903230493FEF7E0
:1026B000B9F908B010BD00BF002001400000024081
:1026C0000268094B9A4282B00BD100230193074B59
:1026D0005A6C42F480225A645B6C03F480230193A9
:1026E000019B02B0704700BF004801400038024023
:1026F00010B5044686B01422002101A800F0D4F8D9
:1027000022680E4B9A4216D1002300930C4B0D48C1
:102710001A6B42F002021A631B6B03F00203009370
:10272000009B4FF4007301930223029301A903233A
:102730000593FEF777F906B010BD00BF00480140D1
:10274000003802400004024010B5044688B014224C
:10275000002103A800F0A8F82268134B9A4220D168
:1027600003F5FA33002101911A6C104842F400324B
:102770001A641A6C02F400320192019A02911A6BE7
:1027800042F001021A631B6B03F001030293029BE8
:102790000C2303930223049303A907230793FEF753
:1027A00041F908B010BD00BF0044004000000240E5
:1027B00008B5FDF7DBFEBDE80840FEF792BF00005C
:1027C0000F49D1F8883043F47003C1F888300D4BBD
:1027D0001A68002042F001021A6098601A6822F01C
:1027E000847222F480321A60074A5A601A6822F40E
:1027F00080221A60D8604FF000638B60704700BF82
:1028000000ED00E00038024010300024DFF834D042
:10281000002103E00C4B5B58435004310B480C4B38
:1028200042189A42F6D30B4A02E0002342F8043BD6
:10283000094B9A42F9D3FFF7C3FF00F011F8FFF7F5
:10284000DBFD7047008001203C29000800000020CB
:102850001000002010000020583E0020FEE700007D
:1028600070B50D4E0D4CA41BA4100025A54209D136
:102870000B4E0C4C00F020F8A41BA4100025A54220
:1028800005D170BD56F8253098470135EEE756F86A
:10289000253098470135F2E734290008342900082B
:1028A000342900083829000802440346934200D125
:1028B000704703F8011BF9E7F8B500BFF8BC08BC86
:1028C0009E467047F8B500BFF8BC08BC9E467047EE
:1028D0000829000855220008000000000000000040
:1028E00080000000FD28000819230008FDFF0000FB
:1028F000000000008000000049444C4500766F6CE9
:10290000746167655049440064656661756C745410
:1029100061736B000000000000000000010203046E
:0C29200006070809000000000102030483
:08292C00E4D8FF7F0100000068
:04293400C5010008D1
:04293800A1010008F1
:10293C000100000010000000AAAAAAAA0024F400BA
:040000050800280DBA
:00000001FF
